:100000000C9464000C9481000C9481000C94810089
:100010000C94FF000C9481000C9481000C948100DE
:100020000C9481000C9481000C9481000C9481004C
:100030000C9481000C9481000C9481000C9481003C
:100040000C9481000C9481000C9481000C9481002C
:100050000C9481000C9481000C9481000C9481001C
:100060000C9481000C9481000C9481000C9481000C
:100070000C9481000C9481000C948100B400BA00AF
:10008000B700CE00CE00C000BD00C300C600C9004E
:10009000CE00CE00CE00CE00CE00CE00CE00CE00F0
:1000A000CC00B201C801BD0114021402D301DE016B
:1000B000E901F4010A0214021402140214021402E7
:1000C000140214021402FF0111241FBECFEFD4E06A
:1000D000DEBFCDBF13E0A0E0B1E0E4EAFBE102C087
:1000E00005900D92A23FB107D9F723E0A2EFB3E04C
:1000F00001C01D92AE3FB207E1F70E94A4010C942B
:10010000D00D0C94000084EA8093BC00ECEBF0E08E
:1001100080818823ECF7089584E98093BC000895DA
:10012000880F8093BB0084E88093BC00ECEBF0E088
:1001300080818823ECF708958093BB0084E8809346
:10014000BC00ECEBF0E080818823ECF70895E091AF
:10015000FA034E2F50E0FA01F097E331F105F0F485
:10016000E25CFF4F0C94E00A0E94150217C00E9447
:10017000730214C00E94FA0211C00E9429040EC02A
:100180000E9489090BC00E940D0808C00E948F09B7
:1001900005C00E94ED0902C00E94A30A0E942F011F
:1001A00008958091F703823019F0843069F0089542
:1001B0008091F603863021F48CE40E94A700089514
:1001C00082E50E94A70008958091F603811104C082
:1001D0008CE40E94A700089582E50E94A70008957C
:1001E000009905C081E08093F403009BFCCF8091CF
:1001F000F403813019F481E40E94A70008951F924E
:100200000F920FB60F9211242F933F934F935F934A
:100210006F937F938F939F93AF93BF93EF93FF93CE
:1002200080B186708093F7030E94F0001092F4036F
:100230000E94D10080B186708093F603FF91EF9108
:10024000BF91AF919F918F917F916F915F914F91EE
:100250003F912F910F900FBE0F901F9018950E9405
:1002600083008FE30E94900084E08093F8038091E4
:10027000F8030E949C001092F8038091F8030E94FA
:100280009C0084E28093F8038091F8030E949C0014
:1002900080E28093F8038091F8030E949C000E9402
:1002A0008C000895EF92FF920F931F93CF93DF93EB
:1002B000182FF62EEA01022F0E942F010E948300C0
:1002C000812F0E9490000023B1F1015010E00F5FD8
:1002D0001F4F0C0F1D1F2F2D2460E22E8881807F61
:1002E0008E298093F8038091F8030E949C008881F6
:1002F000807F8F298093F8038091F8030E949C00EF
:10030000888120E1829FC00111248E298093F80307
:100310008091F8030E949C00899120E1829FC00196
:1003200011248F298093F8038091F8030E949C0088
:10033000C017D10799F60E948C00DF91CF911F91D1
:100340000F91FF90EF9008950E94CF0AFFCF90E0A9
:10035000FC01F097E331F10508F066C0EF5AFF4F5A
:100360000C94E00A80E38093FA0320E541E953E02E
:1003700061E08FE30E945201089582E38093FA03C3
:1003800020E541E453E061E08FE30E9452010895CB
:1003900081E38093FA0320E541EF52E061E08FE3CF
:1003A0000E945201089585E38093FA0320E541EA13
:1003B00052E061E08FE30E945201089586E380934A
:1003C000FA0320E541E552E061E08FE30E9452012B
:1003D000089587E38093FA0320E541E052E061E06D
:1003E0008FE30E945201089588E38093FA0320E589
:1003F00041EB51E061E08FE30E945201089582E4F5
:100400008093FA0320E541E651E061E08FE30E942A
:100410005201089589E38093FA0320E541E151E018
:1004200061E08FE30E94520108958C34B1F082356F
:10043000B9F1813409F056C08091DF038D3521F484
:1004400081E30E94A70108958091D5038D3509F0BD
:1004500049C082E30E94A70108958091D5038D359C
:1004600061F480E28093D5038093CE038DE5809381
:10047000DF038BE58093D6030FC08091DF038D35BA
:1004800059F480E28093DF038093D6038DE5809357
:10049000D5038BE58093CE0380E30E94A7010895E6
:1004A0008091D5038D3561F480E28093D5038093EC
:1004B000CE038DE58093DF038BE58093D6030FC0D9
:1004C0008091DF038D3559F480E28093DF038093C0
:1004D000D6038DE58093D5038BE58093CE0380E32F
:1004E0000E94A70108958C34F9F0823509F44FC0B9
:1004F000813409F07EC0809183038D3521F486E339
:100500000E94A7010895809189038D3521F488E325
:100510000E94A7010895809190038D3509F069C06C
:1005200080E30E94A7010895809183038D3561F4D3
:1005300080E28093830380937D038DE58093900315
:100540008BE580938B031FC0809190038D3561F400
:1005500080E28093900380938B038DE580938903E1
:100560008BE5809385030FC0809189038D3559F405
:1005700080E280938903809385038DE580938303D4
:100580008BE580937D0382E30E94A701089580910B
:1005900083038D3561F480E28093830380937D0330
:1005A0008DE5809389038BE5809385031FC080913F
:1005B00089038D3561F480E28093890380938503FC
:1005C0008DE5809390038BE580938B030FC0809122
:1005D00090038D3559F480E28093900380938B03D0
:1005E0008DE5809383038BE580937D0382E30E94F6
:1005F000A7010895CF93DF9390911001903321F0DC
:10060000913309F483C022C18C34E1F0823509F4BE
:100610004BC0813409F01AC1809134038D3521F427
:1006200080E30E94A70112C180913E038D3509F439
:100630000DC1809114038D3509F008C181E38093C9
:10064000100104C180913E038D3561F480E28093F6
:100650003E03809338038DE5809334038BE58093CC
:100660002F031EC0809134038D3559F4E1EFF2E081
:1006700080E28093340386AF8DE583A38BE5868F7C
:100680000FC0809114038D3559F4E1EFF2E080E260
:1006900083A3868F8DE580933E038BE5809338039B
:1006A00081E30E94A701D2C0809134038D3561F4AB
:1006B00080E28093340380932F038DE580933E0383
:1006C0008BE5809338031EC0809114038D3559F457
:1006D000E1EFF2E080E283A3868F8DE5809334031F
:1006E0008BE586AF0FC080913E038D3559F4E1EF65
:1006F000F2E080E280933E03809338038DE583A38C
:100700008BE5868F81E30E94A701A0C08C3451F055
:10071000823509F452C0813409F098C080E3809397
:10072000100194C0809114038D35D9F48091F203A7
:100730009091F303009781F4809100019091010161
:10074000019790930101809300018BE390E09093D7
:10075000F3038093F20305C001979093F303809312
:10076000F2038091F3038F938091F2038F93809132
:1007700001018F93809100018F9386EE93E09F9308
:100780008F93CBEFD3E0DF93CF930E94E60AE1EFA4
:10079000F2E08881878F898180A38A8181A38B8100
:1007A00082A381E30E94A7018DB79EB708960FB67A
:1007B000F8949EBF0FBE8DBF49C0809114038D3544
:1007C000D1F48091F2039091F3038B33910571F48E
:1007D0008091000190910101019690930101809315
:1007E00000011092F3031092F20305C0019690935A
:1007F000F3038093F2038091F3038F938091F203CC
:100800008F93809101018F93809100018F9386EEE9
:1008100093E09F938F93CBEFD3E0DF93CF930E942E
:10082000E60AE1EFF2E08881878F898180A38A81DF
:1008300081A38B8182A381E30E94A7018DB79EB71C
:1008400008960FB6F8949EBF0FBE8DBFDF91CF9173
:100850000895CF93DF9390911001903321F091335D
:1008600009F4CFC0D7C38C3491F0823509F46CC041
:10087000813409F0CFC38091A0028D3521F487E344
:100880000E94A701C7C381E380931001C3C3809175
:10089000A0028D3561F480E28093A00280939A02D9
:1008A0008DE5809393028BE58093910249C08091FE
:1008B00093028D3561F4E1E5F2E080E280939302EA
:1008C000809391028DE583A38BE581A339C080914C
:1008D00074028D3551F4E1E5F2E080E283A381A357
:1008E0008DE5818F8BE5878B2BC080916A028D35DA
:1008F00051F4E1E5F2E080E2818F878B8DE581AFF5
:100900008BE585AB1DC080918A028D3551F4E1E500
:10091000F2E080E281AF85AB8DE587A78BE583A709
:100920000FC0809180028D3559F4E1E5F2E080E25C
:1009300087A783A78DE58093A0028BE580939A0219
:1009400086E30E94A70166C3809193028D3561F40E
:1009500080E280939302809391028DE58093A002C0
:100960008BE580939A0249C0809174028D3561F4C1
:10097000E1E5F2E080E283A381A38DE58093930219
:100980008BE58093910239C080916A028D3551F4D4
:10099000E1E5F2E080E2818F878B8DE583A38BE533
:1009A00081A32BC080918A028D3551F4E1E5F2E0FC
:1009B00080E281AF85AB8DE5818F8BE5878B1DC094
:1009C000809180028D3551F4E1E5F2E080E287A765
:1009D00083A78DE581AF8BE585AB0FC08091A00229
:1009E0008D3559F4E1E5F2E080E28093A002809336
:1009F0009A028DE587A78BE583A786E30E94A7016E
:100A000009C38C3451F0823509F488C1813409F06E
:100A100001C380E380931001FDC2809193028D3564
:100A200009F043C080910601909107010097F9F405
:100A300089E090E090930701809306011F928F93C5
:100A40008EEE93E09F938F93CBEFD3E0DF93CF9322
:100A50000E94E60A88818093920286E30E94A701A1
:100A60000F900F900F900F900F900F90D3C201979F
:100A700090930701809306019F938F938EEE93E0EE
:100A80009F938F93CBEFD3E0DF93CF930E94E60A3F
:100A900088818093920286E30E94A7010F900F90B5
:100AA0000F900F900F900F90B5C2809174028D350A
:100AB00009F043C080910801909109010097F9F471
:100AC00089E090E090930901809308011F928F9331
:100AD0008EEE93E09F938F93CBEFD3E0DF93CF9392
:100AE0000E94E60A88818093730286E30E94A70130
:100AF0000F900F900F900F900F900F908BC2019757
:100B000090930901809308019F938F938EEE93E059
:100B10009F938F93CBEFD3E0DF93CF930E94E60AAE
:100B200088818093730286E30E94A7010F900F9043
:100B30000F900F900F900F906DC280916A028D35CB
:100B400009F043C080910A0190910B010097F9F4DC
:100B500089E090E090930B0180930A011F928F939C
:100B60008EEE93E09F938F93CBEFD3E0DF93CF9301
:100B70000E94E60A88818093690286E30E94A701A9
:100B80000F900F900F900F900F900F9043C201970E
:100B900090930B0180930A019F938F938EEE93E0C5
:100BA0009F938F93CBEFD3E0DF93CF930E94E60A1E
:100BB00088818093690286E30E94A7010F900F90BD
:100BC0000F900F900F900F9025C280918A028D3563
:100BD00009F050C080910C0190910D01883C910565
:100BE00031F58CE291E090930D0180930C0181E04E
:100BF0008F938CE28F938EEE93E09F938F93CBEF46
:100C0000D3E0DF93CF930E94E60AE1E5F2E088812A
:100C100086AB898187AB8A8180AF86E30E94A7017A
:100C20000F900F900F900F900F900F90F3C10197BE
:100C300090930D0180930C019F938F938EEE93E020
:100C40009F938F93CBEFD3E0DF93CF930E94E60A7D
:100C5000E1E5F2E0888186AB898187AB8A8180AF4C
:100C600086E30E94A7010F900F900F900F900F90B6
:100C70000F90D0C1809180028D3509F0CBC1809159
:100C80000E0190910F018436910529F588EC90E0D2
:100C900090930F0180930E011F9288EC8F938EEE3C
:100CA00093E09F938F93CBEFD3E0DF93CF930E949A
:100CB000E60AE1E5F2E0888184A7898185A78A8137
:100CC00086A786E30E94A7010F900F900F900F90C8
:100CD0000F900F909FC1019790930F0180930E0189
:100CE0009F938F938EEE93E09F938F93CBEFD3E000
:100CF000DF93CF930E94E60AE1E5F2E0888184A7C2
:100D0000898185A78A8186A786E30E94A7010F9023
:100D10000F900F900F900F900F907CC180919302D5
:100D20008D3509F042C0809106019091070189300C
:100D30009105E9F410920701109206011F921F928B
:100D40008EEE93E09F938F93CBEFD3E0DF93CF931F
:100D50000E94E60A88818093920286E30E94A7019E
:100D60000F900F900F900F900F900F9053C101961E
:100D700090930701809306019F938F938EEE93E0EB
:100D80009F938F93CBEFD3E0DF93CF930E94E60A3C
:100D900088818093920286E30E94A7010F900F90B2
:100DA0000F900F900F900F9035C1809174028D3588
:100DB00009F042C0809108019091090189309105A4
:100DC000E9F410920901109208011F921F928EEE11
:100DD00093E09F938F93CBEFD3E0DF93CF930E9469
:100DE000E60A88818093730286E30E94A7010F9030
:100DF0000F900F900F900F900F900CC10196909351
:100E00000901809308019F938F938EEE93E09F9347
:100E10008F93CBEFD3E0DF93CF930E94E60A8881D4
:100E20008093730286E30E94A7010F900F900F90AA
:100E30000F900F900F90EEC080916A028D3509F0EF
:100E400042C080910A0190910B0189309105E9F42B
:100E500010920B0110920A011F921F928EEE93E0E6
:100E60009F938F93CBEFD3E0DF93CF930E94E60A5B
:100E700088818093690286E30E94A7010F900F90FA
:100E80000F900F900F900F90C5C0019690930B019B
:100E900080930A019F938F938EEE93E09F938F939D
:100EA000CBEFD3E0DF93CF930E94E60A8881809353
:100EB000690286E30E94A7010F900F900F900F9098
:100EC0000F900F90A7C080918A028D3509F050C015
:100ED00080910C0190910D018C3221E0920729F54F
:100EE00088EC90E090930D0180930C011F9288ECA8
:100EF0008F938EEE93E09F938F93CBEFD3E0DF93AE
:100F0000CF930E94E60AE1E5F2E0888186AB898111
:100F100087AB8A8180AF86E30E94A7010F900F9074
:100F20000F900F900F900F9075C0019690930D0148
:100F300080930C019F938F938EEE93E09F938F93FA
:100F4000CBEFD3E0DF93CF930E94E60AE1E5F2E036
:100F5000888186AB898187AB8A8180AF86E30E94D6
:100F6000A7010F900F900F900F900F900F9052C00D
:100F7000809180028D3509F04DC080910E019091D5
:100F80000F01883C910521F584E690E090930F01D4
:100F900080930E011F928F938EEE93E09F938F9319
:100FA000CBEFD3E0DF93CF930E94E60AE1E5F2E0D6
:100FB000888184A7898185A78A8186A786E30E9484
:100FC000A7010F900F900F900F900F900F9022C0DD
:100FD000019690930F0180930E019F938F938EEE55
:100FE00093E09F938F93CBEFD3E0DF93CF930E9457
:100FF000E60AE1E5F2E0888184A7898185A78A81F4
:1010000086A786E30E94A7010F900F900F900F9084
:101010000F900F90DF91CF910895CF93DF93909130
:101020001001903321F0913309F49DC06FC18C34CD
:10103000D1F0823509F457C0813409F067C180913D
:101040004E028D3521F485E30E94A7015FC1809196
:1010500044028D3521F486E30E94A70157C181E344
:101060008093100153C180914E028D3561F480E26E
:1010700080934E02809348028DE5809344028BE575
:1010800080933F022CC0809144028D3559F4E1E0F9
:10109000F2E080E28093440286AF8DE584A38BE585
:1010A000878F1DC0809125028D3551F4E1E0F2E07B
:1010B00080E284A3878F8DE5838F8BE5868B0FC0BD
:1010C00080911C028D3559F4E1E0F2E080E2838FDB
:1010D000868B8DE580934E028BE58093480287E3F3
:1010E0000E94A70113C1809144028D3561F480E212
:1010F0008093440280933F028DE580934E028BE5FE
:10110000809348022CC0809125028D3559F4E1E08E
:10111000F2E080E284A3878F8DE5809344028BE523
:1011200086AF1DC080911C028D3551F4E1E0F2E0E4
:1011300080E2838F868B8DE584A38BE5878F0FC03C
:1011400080914E028D3559F4E1E0F2E080E2809327
:101150004E02809348028DE5838F8BE5868B87E373
:101160000E94A701D3C08C3451F0823509F46CC0C1
:10117000813409F0C8C080E380931001C4C080911D
:1011800025028D3569F58091020190910301009748
:1011900039F488EC90E0909303018093020150C0F1
:1011A000019790930301809302019F938F938EEE9A
:1011B00093E09F938F93CBEFD3E0DF93CF930E9485
:1011C000E60AE1E0F2E0888180A3898181A38A8137
:1011D00082A30F900F900F900F900F900F9030C040
:1011E00080911C028D3561F580910401909105017B
:1011F000009739F488EC90E0909305018093040106
:101200001FC0019790930501809304019F938F93D2
:101210008EEE93E09F938F93CBEFD3E0DF93CF934A
:101220000E94E60AE1E0F2E08881878B8981808F65
:101230008A81818F0F900F900F900F900F900F90D9
:1012400087E30E94A7015FC0809125028D3561F57B
:101250008091020190910301883C910529F410923C
:101260000301109202014FC00196909303018093F5
:1012700002019F938F938EEE93E09F938F93CBEF1A
:10128000D3E0DF93CF930E94E60AE1E0F2E08881A9
:1012900080A3898181A38A8182A30F900F900F90F0
:1012A0000F900F900F902FC080911C028D3559F533
:1012B0008091040190910501883C910529F41092D8
:1012C0000501109204011FC00196909305018093BF
:1012D00004019F938F938EEE93E09F938F93CBEFB8
:1012E000D3E0DF93CF930E94E60AE1E0F2E0888149
:1012F000878B8981808F8A81818F0F900F900F90CB
:101300000F900F900F9087E30E94A701DF91CF917C
:101310000895813419F480E30E94A70108958C3464
:10132000B1F08235B9F1813409F056C08091FF01E6
:101330008D3521F489E30E94A70108958091F4017D
:101340008D3509F049C082E40E94A701089580917B
:10135000FF018D3561F480E28093FF018093F801F5
:101360008DE58093F4018BE58093EF010FC08091B0
:10137000F4018D3559F480E28093F4018093EF01FC
:101380008DE58093FF018BE58093F80188E30E944F
:10139000A70108958091FF018D3561F480E280936B
:1013A000FF018093F8018DE58093F4018BE5809334
:1013B000EF010FC08091F4018D3559F480E28093E4
:1013C000F4018093EF018DE58093FF018BE580931D
:1013D000F80188E30E94A70108958C3409F46DC0D8
:1013E000823509F48DC0813409F0ACC080915D0173
:1013F0008D3579F5809145018333C9F028F4813327
:1014000041F0823369F008958433C1F08533E9F007
:10141000089582E38093450189E30E94A70108951E
:1014200083E38093450189E30E94A701089584E343
:101430008093450189E30E94A701089585E3809385
:10144000450189E30E94A701089586E30E94A70150
:101450000895809154018D3509F074C08091450143
:101460008333C9F028F4813321F18233D9F0089510
:10147000843351F0853309F065C084E380934501DE
:1014800089E30E94A701089583E38093450189E3DE
:101490000E94A701089582E38093450189E30E9499
:1014A000A701089581E38093450189E30E94A70184
:1014B000089588E30E94A701089580915D018D350C
:1014C00061F480E280935D01809358018DE5809303
:1014D00054018BE580934F010FC0809154018D35ED
:1014E00059F480E28093540180934F018DE58093FD
:1014F0005D018BE58093580189E30E94A70108955F
:1015000080915D018D3561F480E280935D0180936F
:1015100058018DE5809354018BE580934F010FC0F6
:10152000809154018D3559F480E280935401809369
:101530004F018DE580935D018BE58093580189E330
:101540000E94A701089508950E942F0122E044EE11
:1015500053E060E08FE30E94520123E041EE53E04C
:1015600060E08FE30E94520180E30E94A7010E9485
:101570002F01089584E08093BC0080E88093B80038
:101580001092B900089581E08093680082B187606D
:1015900082B987E080936B000895209A08958FE2C6
:1015A00095E70197F1F700C00000F8940E94CD0A7A
:1015B0000E94BA0A0E94C30A0E94A40A789408955D
:1015C000EE0FFF1F0590F491E02D0994AEE0B0E01E
:1015D000ECEEFAE00C94A70D0D891E8986E08C8351
:1015E0001A8309838FEF9FE79E838D83AE01475E49
:1015F0005F4F6F89788DCE0101960E94080BEF81B5
:10160000F885E00FF11F10822E96E4E00C94C30DD4
:10161000ABE0B0E0EEE0FBE00C94990D6C017B01D7
:101620008A01FC0117821682838181FFCCC1CE0121
:1016300001963C01F6019381F70193FD859193FF9B
:1016400081917F01882309F4BAC1853239F493FD71
:10165000859193FF81917F01853229F4B60190E055
:101660000E94FF0CE7CF912C212C312CFFE1F315C8
:10167000D8F08B3279F038F4803279F08332A1F4EB
:10168000232D20611DC08D3261F0803369F4232D3C
:10169000216016C0832D8260382EE32DE4603E2E3B
:1016A0002AC0F32DF8601DC037FC2DC020ED280F97
:1016B0002A3040F08E32B9F436FC81C1232D2064EB
:1016C000322E19C036FE06C08AE0989E200D1124E5
:1016D000922E11C0EAE02E9E200D1124222EF32D11
:1016E000F0623F2E08C08C3621F4832D8068382E9E
:1016F00002C0883641F4F70193FD859193FF8191F3
:101700007F018111B3CF982F9F7D9554933028F49A
:101710000C5F1F4F9FE399830DC0833631F08337F1
:1017200071F0833509F059C021C0F80180818983A7
:101730000E5F1F4F88248394912C530113C02801FE
:10174000F2E04F0E511CF801A080B18036FE03C0BC
:10175000692D70E002C06FEF7FEFC5010E94F40CAD
:101760004C018201F32DFF773F2E16C0280122E0A5
:10177000420E511CF801A080B18036FE03C0692DD5
:1017800070E002C06FEF7FEFC5010E94E90C4C01D1
:10179000F32DF0683F2E820133FC1BC0822D90E0B8
:1017A00088169906B0F4B60180E290E00E94FF0C22
:1017B0002A94F4CFF50137FC859137FE81915F01C2
:1017C000B60190E00E94FF0C21102A9421E0821AB9
:1017D00091088114910471F7E8C0843611F08936BC
:1017E00041F5F80137FE07C06081718182819381E4
:1017F0000C5F1F4F08C060817181072E000C880BA1
:10180000990B0E5F1F4FF32DFF763F2E97FF09C0F8
:1018100090958095709561957F4F8F4F9F4FF068A1
:101820003F2E2AE030E0A3010E943B0D882E86184F
:1018300045C0853731F4232D2F7EB22E2AE030E0CB
:1018400025C0932D997FB92E8F36C1F018F48835B5
:1018500079F0B5C0803719F0883721F0B0C0E92F92
:10186000E061BE2EB4FE0DC0FB2DF460BF2E09C09A
:1018700034FE0AC0292F2660B22E06C028E030E0D0
:1018800005C020E130E002C020E132E0F801B7FEFF
:1018900007C060817181828193810C5F1F4F06C0F8
:1018A0006081718180E090E00E5F1F4FA3010E9474
:1018B0003B0D882E8618FB2DFF773F2E36FE0DC080
:1018C000232D2E7FA22E891458F434FE0BC032FC37
:1018D00009C0832D8E7EA82E05C0B82CA32C03C072
:1018E000B82C01C0B92CA4FE0FC0FE01E80DF11DFB
:1018F0008081803321F49A2D997EA92E09C0A2FE01
:1019000006C0B394B39404C08A2D867809F0B394CA
:10191000A3FC11C0A0FE06C0B21488F4280C922CBF
:101920009B180EC0B21460F4B60180E290E00E94F1
:10193000FF0CB394F7CFB21418F42B1802C0982CF4
:10194000212CA4FE10C0B60180E390E00E94FF0CA1
:10195000A2FE17C0A1FC03C088E790E002C088E5A2
:1019600090E0B6010CC08A2D867859F0A1FE02C025
:101970008BE201C080E2A7FC8DE2B60190E00E94FC
:10198000FF0C891438F4B60180E390E00E94FF0C4C
:101990009A94F7CF8A94F301E80DF11D8081B60186
:1019A00090E00E94FF0C8110F5CF222009F442CE76
:1019B000B60180E290E00E94FF0C2A94F6CFF60177
:1019C0008681978102C08FEF9FEF2B96E2E10C9406
:1019D000B50DFC010590615070400110D8F780955D
:1019E00090958E0F9F1F0895FC01615070400190EB
:1019F0000110D8F7809590958E0F9F1F08950F9333
:101A00001F93CF93DF93FB01238121FD03C08FEF51
:101A10009FEF2CC022FF16C046815781248135815B
:101A20004217530744F4A081B1819D012F5F3F4FBE
:101A3000318320838C93268137812F5F3F4F3783FB
:101A4000268314C08B01EC01FB010084F185E02D9D
:101A50000995892BE1F6D80116968D919C911797DF
:101A6000019617969C938E931697CE01DF91CF9196
:101A70001F910F910895FA01AA27283051F12031C2
:101A800081F1E8946F936E7F6E5F7F4F8F4F9F4F12
:101A9000AF4FB1E03ED0B4E03CD0670F781F891F54
:101AA0009A1FA11D680F791F8A1F911DA11D6A0F22
:101AB000711D811D911DA11D20D009F468943F91D5
:101AC0002AE0269F11243019305D3193DEF6CF01D4
:101AD0000895462F4770405D4193B3E00FD0C9F79A
:101AE000F6CF462F4F70405D4A3318F0495D31FD07
:101AF0004052419302D0A9F7EACFB4E0A69597955A
:101B0000879577956795BA95C9F70097610571052F
:101B100008959B01AC010A2E069457954795379579
:101B20002795BA95C9F7620F731F841F951FA01DD3
:101B300008952F923F924F925F926F927F928F9271
:101B40009F92AF92BF92CF92DF92EF92FF920F934C
:101B50001F93CF93DF93CDB7DEB7CA1BDB0B0FB656
:101B6000F894DEBF0FBECDBF09942A883988488813
:101B70005F846E847D848C849B84AA84B984C884A9
:101B8000DF80EE80FD800C811B81AA81B981CE0FA0
:101B9000D11D0FB6F894DEBF0FBECDBFED01089585
:041BA000F894FFCFE7
:101BA400050078007800030003000300DC007800DF
:101BB400305075742050726F626520496E204963FD
:101BC400654261746820562D6A756E6374696F6E20
:101BD4003A203030307556202020202020202050FC
:101BE400726F626520312020202020202020205B7D
:101BF4004261636B5D202020204E65787420202094
:101C0400204F56454E000000000000000000000078
:101C140000000000000000000000000000000000C0
:101C240000000000000000000000000000000000B0
:101C340000000000000000000000000000000000A0
:101C44000000000000000000000000000000000090
:101C5400002D2D2D2D2D2D2D2D2D2D2D2D2D2D2DDD
:101C64002D2D2D2D2D2D2D2D2D2D2D2D2D2D2D2DA0
:101C74002D2D2D2D2D2D2D2D2D20202020202043C8
:101C8400414C49425241544520202020202020200C
:101C94004F76656E202020205B50726F6265735D05
:101CA40020202020202020204457454C4C20202058
:101CB400202020202020202031323073202020209A
:101CC400203132307320202020202020536F616B7C
:101CD400202020205265666C6F7720202020202051
:101CE4004261636B202020205B53746172745D2019
:101CF40020536F616B2020202020205265666C6F7A
:101D04007720202020526D70203320432F732052DF
:101D14006D70203320432F7320546D702031323086
:101D2400204320546D7020323230204320436F6FA3
:101D34006C203320432F732020205B4477656C6C28
:101D44005D2020205265666C6F7720205374617487
:101D540075732020202054656D70202054617267B3
:101D6400657420204E65787420202020202054693A
:101D74006D653A20313A3230202020202020303046
:101D84003043202020303030432020203030304376
:101D9400202020202020204558504F5355524520C4
:101DA40020202020202020202054696D653A205BCB
:101DB400353A30305D202020202D2D2D2D2D2D2D38
:101DC4002D2D2D2D2D2D2D2D2D2D2D2D2D20202066
:101DD400486F6D6520202020205374617274202088
:101DE400202D2D2D2D2D2D2D2D2D2D2D2D2D2D2D2C
:101DF4002D2D2D2D2D2D2D2D2D2D2D2D2D2D2D2D0F
:101E04002D2D2D2D2D2D2D2D2D2020202020202059
:101E14005245464C4F57202020202020205B5365FC
:101E24007475705D202043616C202020486F6D65BF
:101E3400202D2D2D2D2D2D2D2D2D2D2D2D2D2D2DDB
:101E44002D2D2D2D2D2D2D2D2D2D2D2D2D2D2D2DBE
:101E54002D2D2D2D2D2D2D2D2D2020202020202009
:101E6400204D4F44452020202020202020205B525C
:101E740065666C6F775D204578706F737572652049
:101E8400200C0106333225643A252E326400256481
:021E940000004C
:00000001FF
