:100000000C943E000C9450000C9450000C94500042
:100010000C9450000C9450000C9450000C94500020
:100020000C9450000C9450000C9450000C94500010
:100030000C9450000C9450000C9450000C94500000
:100040000C9450000C9450000C9450000C945000F0
:100050000C9450000C9450000C9450000C945000E0
:100060000C9450000C9450000C9450000C945000D0
:100070000C9450000C9450000C94500011241FBE9E
:10008000CFEFD4E0DEBFCDBF21E0A0E0B1E001C002
:100090001D92A030B207E1F70E9452000C9460005C
:1000A0000C94000091E02FE33DE083E021503040CC
:1000B0008040E1F700C0000085B1892785B9F3CF02
:0400C000F894FFCFE2
:00000001FF
